:1000000012C01FC01EC01DC04BC01BC01AC019C0EB
:1000100018C017C016C015C014C013C012C011C03C
:1000200010C00FC00EC011241FBECFEDCDBF20E009
:10003000A0E6B0E001C01D92A336B207E1F753D0AD
:1000400098C0DECF8EB58C608EBD1DBC1CBC82E11D
:100050009AE79BBD8ABD89B7806489BF0895809166
:1000600060008F5F8C3318F48093600007C010929B
:100070006000809161008F5F8093610080916100DA
:100080008C3338F010926100809162008F5F809312
:10009000620080916200883110F010926200089531
:1000A0001F920F920FB60F9211242F933F934F93ED
:1000B0005F936F937F938F939F93AF93BF93EF93D0
:1000C000FF93CDDFFF91EF91BF91AF919F918F9102
:1000D0007F916F915F914F913F912F910F900FBE44
:1000E0000F901F901895AEDF78948FEF87BB91B378
:1000F00091BB82BB30E820E4829910C080916200FD
:100100008F5F80936200109260004FEF81EE94E069
:10011000415080409040E1F700C00000839910C03A
:10012000809161008F5F80936100109260004FEFBB
:1001300081EE94E0415080409040E1F700C0000023
:1001400038BB88B390916200892788BB8FEC97E019
:100150000197F1F700C0000028BB88B390916100BF
:10016000892788BB8FEC97E00197F1F700C000006A
:06017000C3CFF894FFCF9D
:00000001FF
